:020000040000FA
:0600000045EF01F01200C3
:020006000000F8
:08000800060EF66E000EF76E05
:10001000000EF86E00010900F550BD6F0900F550A3
:10002000BE6F03E1BD6701D03DD00900F550B86F48
:100030000900F550B96F0900F550BA6F09000900C1
:10004000F550E96E0900F550EA6E09000900090053
:10005000F550BB6F0900F550BC6F09000900F6CFE1
:10006000BFF0F7CFC0F0F8CFC1F0B8C0F6FFB9C00D
:10007000F7FFBAC0F8FF0001BB5302E1BC5307E031
:100080000900F550EE6EBB07F8E2BC07F9D7BFC018
:10009000F6FFC0C0F7FFC1C0F8FF0001BD07000EAA
:0600A000BE5BBFD7120099
:0A00A60003001200D9CFE6FFE1CFFE
:1000B000D9FF2DD8FED7936A819090EC00F087EF9E
:1000C00000F0D20EE66E010E1BD0C10EE66E010EE0
:1000D00017D0B00EE66E010E13D09F0EE66E010E25
:1000E0000FD08E0EE66E010E0BD0E5DFEADFEDDFFE
:1000F000F0DFF3DFF6DF819C939CF36AF46A120071
:10010000E66EBDEC00F0E552E55253EF01F0E30E70
:10011000E66E010EE66EBDEC00F0E552E55212000F
:10012000949C948EB06A190EAF6EAC94B896AC984D
:10013000AB8EAC8A120000018AC0F6FF8BC0F7FFBD
:100140008A2B000E8B230800F550E66E88C0E9FF6D
:1001500089C0EAFF882B000E8923E552E750EF6E35
:10016000EAE112008CC08AF08DC08BF00001600EB5
:10017000886F000E896FDFDF01D000D0600EE66E61
:0E018000000EE66EF8EC00F0E552E5521200BB
:02018E0074619A
:10019000736B20352072756E6E696E670D0A007480
:1001A00061736B20342072756E6E696E670D0A0084
:1001B0007461736B20332072756E6E696E670D0A01
:1001C000007461736B20322072756E6E696E670DFC
:1001D0000A005461736B20312072756E6E696E6710
:0F01E0000D0A006D7920737472696E670D0A0045
:1001F000D9CFE6FFDACFE6FFE1CFD9FFE2CFDAFFD2
:10020000ACA2FED7FC0EDBCFE9FFFD0EDBCFEAFF91
:10021000EF50E66E1EEC01F0E552FC0EDBCFE9FF7D
:10022000DB2AFD0EDBCFEAFF01E3DB2AEF50E8E13A
:0C023000E552E5CFDAFFE7CFD9FF12005E
:04023C00D9CFE6FF31
:10024000DACFE6FFE1CFD9FFE2CFDAFFACAC04D0E2
:10025000AC900001C2B3AC80FD0EDB50AD6EE55238
:0A026000E5CFDAFFE7CFD9FF120067
:06026A00000EF36E00EE31
:1002700000F0080E01D81200EA6002D0EE6AFCD746
:0A028000F350E9601200EE6AFCD7AB
:06028A0013EE00F023EE6C
:1002900000F0F86A019C04EC00F05CEC01F075ECF5
:0602A00000F0FBD7120084
:0A02A600F29CF28ECD829DA003D0E1
:0802B000080ECE6ECF6A1200A9
:0202B800120032
:00000001FF
